{
    "contractName": "BetToken",
    "abi": [
        {
            "inputs": [],
            "stateMutability": "nonpayable",
            "type": "constructor"
        },
        {
            "inputs": [],
            "name": "airdrop",
            "outputs": [],
            "stateMutability": "nonpayable",
            "type": "function"
        },
        {
            "inputs": [
                {
                    "internalType": "address",
                    "name": "",
                    "type": "address"
                }
            ],
            "name": "airdroprecord",
            "outputs": [
                {
                    "internalType": "bool",
                    "name": "",
                    "type": "bool"
                }
            ],
            "stateMutability": "view",
            "type": "function"
        },
        {
            "inputs": [
                {
                    "internalType": "address",
                    "name": "",
                    "type": "address"
                }
            ],
            "name": "balances",
            "outputs": [
                {
                    "internalType": "uint256",
                    "name": "",
                    "type": "uint256"
                }
            ],
            "stateMutability": "view",
            "type": "function"
        },
        {
            "inputs": [
                {
                    "internalType": "uint256",
                    "name": "value",
                    "type": "uint256"
                },
                {
                    "internalType": "uint256",
                    "name": "mod",
                    "type": "uint256"
                }
            ],
            "name": "bet",
            "outputs": [],
            "stateMutability": "nonpayable",
            "type": "function"
        },
        {
            "inputs": [
                {
                    "internalType": "address",
                    "name": "candidate",
                    "type": "address"
                }
            ],
            "name": "checkWin",
            "outputs": [],
            "stateMutability": "nonpayable",
            "type": "function"
        },
        {
            "inputs": [
                {
                    "internalType": "address",
                    "name": "",
                    "type": "address"
                }
            ],
            "name": "logger",
            "outputs": [
                {
                    "internalType": "uint256",
                    "name": "",
                    "type": "uint256"
                }
            ],
            "stateMutability": "view",
            "type": "function"
        },
        {
            "inputs": [
                {
                    "internalType": "address",
                    "name": "to",
                    "type": "address"
                },
                {
                    "internalType": "uint256",
                    "name": "amount",
                    "type": "uint256"
                }
            ],
            "name": "seal",
            "outputs": [],
            "stateMutability": "nonpayable",
            "type": "function"
        },
        {
            "inputs": [
                {
                    "internalType": "address",
                    "name": "to",
                    "type": "address"
                },
                {
                    "internalType": "uint256",
                    "name": "amount",
                    "type": "uint256"
                }
            ],
            "name": "transferTo",
            "outputs": [],
            "stateMutability": "pure",
            "type": "function"
        }
    ],
    "bytecode": "608060405234801561001057600080fd5b50600080546001600160a01b0319163390811782558152600160205260408120620186a09055600255600a6003554260045561070f806100516000396000f3fe608060405234801561001057600080fd5b50600436106100885760003560e01c806399866a971161005b57806399866a97146100f0578063b49548c214610110578063ced7d6ba14610143578063e7a338221461015657600080fd5b806327e235e31461008d5780632ccb1b30146100c05780633884d635146100d55780636ffcc719146100dd575b600080fd5b6100ad61009b3660046105e5565b60016020526000908152604090205481565b6040519081526020015b60405180910390f35b6100d36100ce366004610607565b610169565b005b6100d36101cc565b6100d36100eb366004610631565b610269565b6100ad6100fe3660046105e5565b60066020526000908152604090205481565b61013361011e3660046105e5565b60056020526000908152604090205460ff1681565b60405190151581526020016100b7565b6100d36101513660046105e5565b6103fb565b6100d3610164366004610607565b61054a565b80156101c85760405162461bcd60e51b8152602060048201526024808201527f746869732066756e6374696f6e206973206e6f7420696d70656c6d656e746564604482015263081e595d60e21b60648201526084015b60405180910390fd5b5050565b3360009081526005602052604090205460ff161561022c5760405162461bcd60e51b815260206004820152601b60248201527f796f7520616c726561647920676f7420796f757220616972646f70000000000060448201526064016101bf565b336000908152600560209081526040808320805460ff1916600190811790915590915281208054601e9290610262908490610669565b9091555050565b600454339042900361027a57600080fd5b6002821015801561028c5750600c8211155b61029557600080fd5b33600090815260066020526040902054601410156102b257600080fd5b3360009081526006602052604081208054600192906102d2908490610669565b90915550506003543360009081526001602052604090205410156102f557600080fd5b6003543360009081526001602052604081208054909190610317908490610681565b9091555061032790508284610698565b9250803b63ffffffff81161561033c57600080fd5b60025460408051602081019290925242908201524460608083019190915233901b6bffffffffffffffffffffffff1916608082015260009084906094016040516020818303038152906040528051906020012060001c61039c9190610698565b90506001600260008282546103b19190610669565b9091555050426004558085036103f457836003546103cf91906106ba565b33600090815260016020526040812080549091906103ee908490610669565b90915550505b5050505050565b6000546001600160a01b031633146104495760405162461bcd60e51b81526020600482015260116024820152703cb7ba9030b932903737ba1037bbb732b960791b60448201526064016101bf565b6000546001600160a01b039081169082160361049a5760405162461bcd60e51b815260206004820152601060248201526f796f7520617265206368656174696e6760801b60448201526064016101bf565b6001600160a01b0381166000908152600160205260409020546107d0106104f75760405162461bcd60e51b81526020600482015260116024820152703cb7ba9039ba34b636103737ba103bb4b760791b60448201526064016101bf565b6001600160a01b0380821660009081526001602052604080822054825490931682528120805490919061052b908490610669565b90915550506001600160a01b0316600090815260016020526040812055565b6000546001600160a01b031633146105985760405162461bcd60e51b81526020600482015260116024820152703cb7ba9030b932903737ba1037bbb732b960791b60448201526064016101bf565b6001600160a01b038216600090815260016020526040812080548392906105c0908490610669565b90915550505050565b80356001600160a01b03811681146105e057600080fd5b919050565b6000602082840312156105f757600080fd5b610600826105c9565b9392505050565b6000806040838503121561061a57600080fd5b610623836105c9565b946020939093013593505050565b6000806040838503121561064457600080fd5b50508035926020909101359150565b634e487b7160e01b600052601160045260246000fd5b6000821982111561067c5761067c610653565b500190565b60008282101561069357610693610653565b500390565b6000826106b557634e487b7160e01b600052601260045260246000fd5b500690565b60008160001904831182151516156106d4576106d4610653565b50029056fea26469706673582212208514603b29118ad63a5c085f09573327ebdafc0c417e45c63430cc26072a625864736f6c634300080f0033",
    "sourcePath": "/home/lin/playground/ctfs/my_challenges/bet2loss/app/contracts/bet.sol",
    "compiler": {
        "name": "solc",
        "version": "0.8.15+commit.e14f2714"
    },
    "functionHashes": {
        "airdrop()": "3884d635",
        "airdroprecord(address)": "b49548c2",
        "balances(address)": "27e235e3",
        "bet(uint256,uint256)": "6ffcc719",
        "checkWin(address)": "ced7d6ba",
        "logger(address)": "99866a97",
        "seal(address,uint256)": "e7a33822",
        "transferTo(address,uint256)": "2ccb1b30"
    },
    "gasEstimates": {
        "creation": {
            "codeDepositCost": "361400",
            "executionCost": "96023",
            "totalCost": "457423"
        },
        "external": {
            "airdrop()": "51042",
            "airdroprecord(address)": "2553",
            "balances(address)": "2509",
            "bet(uint256,uint256)": "infinite",
            "checkWin(address)": "40590",
            "logger(address)": "2508",
            "seal(address,uint256)": "26918",
            "transferTo(address,uint256)": "486"
        }
    }
}